:100000000C942A000C9447000C9447000C94470071
:100010000C9447000C9447000C9447000C94470044
:100020000C9447000C9447000C9447000C94490032
:100030000C9447000C9447000C9447000C94470024
:100040000C9447000C9447000C9447000C94470014
:100050000C94470011241FBECFE5D8E0DEBFCDBF12
:1000600010E0A0E6B0E0ECEBF4E002C005900D92E9
:10007000A036B107D9F710E0A0E6B0E001C01D92AC
:10008000A636B107E1F70E9487000C945C020C943D
:1000900000001F920F920FB60F9211248F93809140
:1000A00061008F5F809361008F910F900FBE0F9062
:1000B0001F90189512BE83B7846083BF83B7816099
:1000C00083BF089583B78B7F83BF83B78E7F83BF42
:1000D0000895609164007091650080E090E00E9456
:1000E0006B0128E23EE74CE85CE30E94D1010E94EC
:1000F0003F01DC01CB01909363008093620008957F
:10010000AA9A85E38A95F1F70000AA9808951FBC82
:1001100080E288BF81E48EBD0E94F4000E942B0122
:10012000A29A8E98C0E2D1E00F2EF6E6EF2EFFE302
:10013000FF2EF02D11E40E94800088B785FFFDCFCF
:100140000E945A00C8BFDEBD88B785FFFDCF62B7E9
:1001500070E080E090E00E946D0120E030E040E837
:1001600054E40E94D10120E030E040E85DE30E94C9
:10017000D1010E943F012091610030E02E9DC0011D
:100180002F9D900D3E9D900D1124860F971F9093EB
:100190006500809364000E946200109261000E94DA
:1001A0006900C8BF1EBD80916200909163000B97EB
:1001B00021E08638920718F484E60E942F0180918E
:1001C0006200909163008B30910520F48091600073
:1001D0000E942F018FEF94E3ACE081509040A0404B
:1001E000E1F700C00000A7CF85E883BF89B7816031
:1001F00089BF08958DE883BF88EC8CBF89B7826082
:1002000089BF0895BB9A89E683BF0895682F70E07F
:1002100080E090E00E946D0123E333E343E250E489
:100220000E94D1010E943F016CBF089587E885BDFF
:1002300089B7806489BF789408958FE885BD89B7B0
:10024000806889BF88EC83BD789408958F9A99E976
:1002500095BD83BD08958F9A89E685BD0895682F61
:1002600070E080E090E00E946D0123E333E343E21D
:1002700050E40E94D1010E943F0163BD089570D0F7
:1002800088F09F5790F0B92F9927B751A0F0D1F07F
:10029000660F771F881F991F1AF0BA95C9F712C009
:1002A000B13081F077D0B1E0089574C0672F782F16
:1002B0008827B85F39F0B93FCCF386957795679575
:1002C000B395D9F73EF490958095709561957F4FE1
:1002D0008F4F9F4F0895E89409C097FB3EF4909587
:1002E0008095709561957F4F8F4F9F4F9923A9F00F
:1002F000F92F96E9BB279395F6958795779567959E
:10030000B795F111F8CFFAF4BB0F11F460FF1BC0E1
:100310006F5F7F4F8F4F9F4F16C0882311F096E974
:1003200011C0772321F09EE8872F762F05C0662322
:1003300071F096E8862F70E060E02AF09A95660FDB
:10034000771F881FDAF7880F9695879597F9089594
:1003500057FD9058440F551F59F05F3F71F0479576
:10036000880F97FB991F61F09F3F79F0879508955B
:10037000121613061406551FF2CF4695F1DF08C07A
:10038000161617061806991FF1CF86957105610597
:1003900008940895E894BB2766277727CB0197F93F
:1003A00008950BD078C069D028F06ED018F095234E
:1003B00009F05AC05FC01124EECFCADFA0F3959FA9
:1003C000D1F3950F50E0551F629FF001729FBB273C
:1003D000F00DB11D639FAA27F00DB11DAA1F649FE8
:1003E0006627B00DA11D661F829F2227B00DA11D9B
:1003F000621F739FB00DA11D621F839FA00D611D21
:10040000221F749F3327A00D611D231F849F600D41
:10041000211D822F762F6A2F11249F5750408AF07A
:10042000E1F088234AF0EE0FFF1FBB1F661F771F06
:10043000881F91505040A9F79E3F510570F014C09D
:10044000AACF5F3FECF3983EDCF3869577956795EE
:10045000B795F795E7959F5FC1F7FE2B880F911D24
:100460009695879597F9089597F99F6780E870E0CA
:1004700060E008959FEF80EC089500240A9416161A
:10048000170618060906089500240A941216130682
:10049000140605060895092E0394000C11F4882310
:1004A00052F0BB0F40F4BF2B11F460FF04C06F5F2C
:0C04B0007F4F8F4F9F4F0895F894FFCFAF
:00000001FF
